{
  "_format": "hh-sol-artifact-1",
  "contractName": "NFT",
  "sourceName": "contracts/NFT.sol",
  "abi": [
    {
      "inputs": [],
      "stateMutability": "nonpayable",
      "type": "constructor"
    },
    {
      "inputs": [
        {
          "internalType": "uint256",
          "name": "_index",
          "type": "uint256"
        }
      ],
      "name": "getNftData",
      "outputs": [
        {
          "components": [
            {
              "internalType": "uint256",
              "name": "tokenId",
              "type": "uint256"
            },
            {
              "internalType": "address",
              "name": "owner",
              "type": "address"
            },
            {
              "internalType": "uint256",
              "name": "price",
              "type": "uint256"
            },
            {
              "internalType": "string",
              "name": "uri",
              "type": "string"
            },
            {
              "internalType": "uint256",
              "name": "timeRented",
              "type": "uint256"
            }
          ],
          "internalType": "struct NFT.NftData",
          "name": "",
          "type": "tuple"
        }
      ],
      "stateMutability": "view",
      "type": "function"
    },
    {
      "inputs": [],
      "name": "getTotalCount",
      "outputs": [
        {
          "internalType": "uint256",
          "name": "",
          "type": "uint256"
        }
      ],
      "stateMutability": "view",
      "type": "function"
    },
    {
      "inputs": [
        {
          "internalType": "uint256",
          "name": "_price",
          "type": "uint256"
        },
        {
          "internalType": "string",
          "name": "_uri",
          "type": "string"
        }
      ],
      "name": "mint",
      "outputs": [],
      "stateMutability": "nonpayable",
      "type": "function"
    },
    {
      "inputs": [
        {
          "internalType": "uint256",
          "name": "_index",
          "type": "uint256"
        }
      ],
      "name": "rent",
      "outputs": [],
      "stateMutability": "payable",
      "type": "function"
    }
  ],
  "bytecode": "0x6080604052348015600f57600080fd5b50336000806101000a81548173ffffffffffffffffffffffffffffffffffffffff021916908373ffffffffffffffffffffffffffffffffffffffff160217905550610cf58061005f6000396000f3fe60806040526004361061003f5760003560e01c806356d42bb3146100445780637456be7d1461006f57806377097fc81461008b578063a802d82b146100b4575b600080fd5b34801561005057600080fd5b506100596100f1565b60405161006691906104f0565b60405180910390f35b6100896004803603810190610084919061054b565b6100fb565b005b34801561009757600080fd5b506100b260048036038101906100ad91906106be565b610226565b005b3480156100c057600080fd5b506100db60048036038101906100d6919061054b565b61031b565b6040516100e8919061085f565b60405180910390f35b6000600154905090565b600154811061013f576040517f08c379a0000000000000000000000000000000000000000000000000000000008152600401610136906108de565b60405180910390fd5b6000600260008381526020019081526020016000209050806002015434101561019d576040517f08c379a00000000000000000000000000000000000000000000000000000000081526004016101949061094a565b60405180910390fd5b8060010160009054906101000a900473ffffffffffffffffffffffffffffffffffffffff1673ffffffffffffffffffffffffffffffffffffffff166108fc349081150290604051600060405180830381858888f19350505050158015610207573d6000803e3d6000fd5b5080600401600081548092919061021d90610999565b91905055505050565b60003390506040518060a0016040528060015481526020018273ffffffffffffffffffffffffffffffffffffffff16815260200184815260200183815260200160008152506002600060015481526020019081526020016000206000820151816000015560208201518160010160006101000a81548173ffffffffffffffffffffffffffffffffffffffff021916908373ffffffffffffffffffffffffffffffffffffffff1602179055506040820151816002015560608201518160030190816102f09190610bed565b50608082015181600401559050506001600081548092919061031190610999565b9190505550505050565b610323610492565b6001548210610367576040517f08c379a000000000000000000000000000000000000000000000000000000000815260040161035e906108de565b60405180910390fd5b600260008381526020019081526020016000206040518060a0016040529081600082015481526020016001820160009054906101000a900473ffffffffffffffffffffffffffffffffffffffff1673ffffffffffffffffffffffffffffffffffffffff1673ffffffffffffffffffffffffffffffffffffffff168152602001600282015481526020016003820180546103ff90610a10565b80601f016020809104026020016040519081016040528092919081815260200182805461042b90610a10565b80156104785780601f1061044d57610100808354040283529160200191610478565b820191906000526020600020905b81548152906001019060200180831161045b57829003601f168201915b505050505081526020016004820154815250509050919050565b6040518060a0016040528060008152602001600073ffffffffffffffffffffffffffffffffffffffff1681526020016000815260200160608152602001600081525090565b6000819050919050565b6104ea816104d7565b82525050565b600060208201905061050560008301846104e1565b92915050565b6000604051905090565b600080fd5b600080fd5b610528816104d7565b811461053357600080fd5b50565b6000813590506105458161051f565b92915050565b60006020828403121561056157610560610515565b5b600061056f84828501610536565b91505092915050565b600080fd5b600080fd5b6000601f19601f8301169050919050565b7f4e487b7100000000000000000000000000000000000000000000000000000000600052604160045260246000fd5b6105cb82610582565b810181811067ffffffffffffffff821117156105ea576105e9610593565b5b80604052505050565b60006105fd61050b565b905061060982826105c2565b919050565b600067ffffffffffffffff82111561062957610628610593565b5b61063282610582565b9050602081019050919050565b82818337600083830152505050565b600061066161065c8461060e565b6105f3565b90508281526020810184848401111561067d5761067c61057d565b5b61068884828561063f565b509392505050565b600082601f8301126106a5576106a4610578565b5b81356106b584826020860161064e565b91505092915050565b600080604083850312156106d5576106d4610515565b5b60006106e385828601610536565b925050602083013567ffffffffffffffff8111156107045761070361051a565b5b61071085828601610690565b9150509250929050565b610723816104d7565b82525050565b600073ffffffffffffffffffffffffffffffffffffffff82169050919050565b600061075482610729565b9050919050565b61076481610749565b82525050565b600081519050919050565b600082825260208201905092915050565b60005b838110156107a4578082015181840152602081019050610789565b60008484015250505050565b60006107bb8261076a565b6107c58185610775565b93506107d5818560208601610786565b6107de81610582565b840191505092915050565b600060a083016000830151610801600086018261071a565b506020830151610814602086018261075b565b506040830151610827604086018261071a565b506060830151848203606086015261083f82826107b0565b9150506080830151610854608086018261071a565b508091505092915050565b6000602082019050818103600083015261087981846107e9565b905092915050565b600082825260208201905092915050565b7f496e76616c696420696e64657800000000000000000000000000000000000000600082015250565b60006108c8600d83610881565b91506108d382610892565b602082019050919050565b600060208201905081810360008301526108f7816108bb565b9050919050565b7f4e6f20656e6f7567682065746820726563656976656400000000000000000000600082015250565b6000610934601683610881565b915061093f826108fe565b602082019050919050565b6000602082019050818103600083015261096381610927565b9050919050565b7f4e487b7100000000000000000000000000000000000000000000000000000000600052601160045260246000fd5b60006109a4826104d7565b91507fffffffffffffffffffffffffffffffffffffffffffffffffffffffffffffffff82036109d6576109d561096a565b5b600182019050919050565b7f4e487b7100000000000000000000000000000000000000000000000000000000600052602260045260246000fd5b60006002820490506001821680610a2857607f821691505b602082108103610a3b57610a3a6109e1565b5b50919050565b60008190508160005260206000209050919050565b60006020601f8301049050919050565b600082821b905092915050565b600060088302610aa37fffffffffffffffffffffffffffffffffffffffffffffffffffffffffffffffff82610a66565b610aad8683610a66565b95508019841693508086168417925050509392505050565b6000819050919050565b6000610aea610ae5610ae0846104d7565b610ac5565b6104d7565b9050919050565b6000819050919050565b610b0483610acf565b610b18610b1082610af1565b848454610a73565b825550505050565b600090565b610b2d610b20565b610b38818484610afb565b505050565b5b81811015610b5c57610b51600082610b25565b600181019050610b3e565b5050565b601f821115610ba157610b7281610a41565b610b7b84610a56565b81016020851015610b8a578190505b610b9e610b9685610a56565b830182610b3d565b50505b505050565b600082821c905092915050565b6000610bc460001984600802610ba6565b1980831691505092915050565b6000610bdd8383610bb3565b9150826002028217905092915050565b610bf68261076a565b67ffffffffffffffff811115610c0f57610c0e610593565b5b610c198254610a10565b610c24828285610b60565b600060209050601f831160018114610c575760008415610c45578287015190505b610c4f8582610bd1565b865550610cb7565b601f198416610c6586610a41565b60005b82811015610c8d57848901518255600182019150602085019450602081019050610c68565b86831015610caa5784890151610ca6601f891682610bb3565b8355505b6001600288020188555050505b50505050505056fea26469706673582212204c84873b189bbd1d1ee95a7ddd1c88771aa1f56aa394c8f7e02e093fa5f5568364736f6c634300081b0033",
  "linkReferences": {},
  "deployedLinkReferences": {}
}